:020000040800F2
:10000000E82A002045010008DD060008490500082F
:10001000D9060008A5020008DD1A0008000000004B
:100020000000000000000000000000007117000840
:100030009903000800000000B7010008D11800086B
:100040005F0100085F0100085F0100085F01000810
:100050005F0100085F0100085F0100085F01000800
:100060005F0100085F0100085F0100085F010008F0
:100070005F0100085F0100085F0100085F010008E0
:100080005F0100085F0100085F0100085F010008D0
:10009000851A00085F0100085F0100085F01000881
:1000A0005F0100085F0100085F0100085F010008B0
:1000B0005F0100084D1900085F0100085F0100089A
:1000C0005F0100085F0100085F0100085F01000890
:1000D0005F010008951900085F0100085F01000832
:1000E0005F0100085F0100085F0100085F01000870
:1000F0005F0100085F0100085F0100085F01000860
:100100005F0100085F0100085F0100085F0100084F
:100110005F0100085F0100085F0100085F0100083F
:100120005F0100085F0100085F0100085F0100082F
:10013000DFF80CD000F072F800480047011D0008FD
:10014000E82A00200648804706480047FEE7FEE709
:10015000FEE7FEE7FEE7FEE7FEE7FEE7FEE7FEE777
:10016000ED18000831010008EFF3108072B67047F7
:1001700080F310887047204C204D25604FF000041C
:1001800084F309881E4C4FF0010525701D4C4FF07B
:100190008055256062B6FEE730B41A4C4FF08055AA
:1001A000256030BC704730B4164C4FF08055256048
:1001B00030BC704700BF72B6EFF3098028B1203819
:1001C00080E8F00F10490968086000B50F488047C3
:1001D0005DF804EB0E480F490A7802700A480E4990
:1001E0000A680260106890E8F00F203080F30988F8
:1001F0004EF0040E62B6704720ED00E00000FFFFF5
:100200008A02002004ED00E0900200202D1000087A
:100210007F0200208002002098020020064C074D3B
:1002200006E0E06840F0010394E8070098471034C6
:10023000AC42F6D3FFF780FF7C1E00089C1E00082E
:1002400070B58C1810F8015B15F0070301D110F898
:10025000013B2A1106D110F8012B03E010F8016BC5
:1002600001F8016B5B1EF9D12B0705D40023521E48
:100270000DD401F8013BFAE710F8013BCB1A921CB0
:1002800003E013F8015B01F8015B521EF9D5A142AE
:10029000D8D3002070BD00000149086070470000FD
:1002A00000860D4200BFFEE710B500F5D87303EBE2
:1002B00001131B6803F004031372137A53B900F59A
:1002C000D87303EB01131B6840F2FF7404EA535325
:1002D000136009E000F5D87303EB01131B686FF09E
:1002E000604404EAD303536000F5D87303EB0113B1
:1002F0001B6803F00203537200F5D87303EB01137C
:100300005B6803F00F03937200F5D87303EB0113DE
:100310005B681B0AD37400F5D87303EB01139B6869
:10032000D37200F5D87303EB01139B681C0A147396
:1003300000F5D87303EB01139B681C0C547300F594
:10034000D87303EB01139B681B0E937300F5D873EE
:1003500003EB0113DB68D37300F5D87303EB0113D0
:10036000DB681C0A147400F5D87303EB0113DB6817
:100370001C0C547400F5D87303EB0113DB681B0EDF
:10038000937421B9C36843F02003C36003E0036999
:1003900043F02003036110BD70472DE9F041024690
:1003A00000250026002000230024002791F803C028
:1003B0000CF00F0591F803C00CF0100CBCF1000F0D
:1003C00003D091F802C04CEA050591F800C0BCF1D9
:1003D000000F31D0146800202BE04FF0010C0CFA14
:1003E00000F3B1F800C00CEA03069E4220D183005E
:1003F0004FF00F0C0CFA03F7BC4305FA03FC4CEA70
:10040000040491F803C0BCF1280F06D14FF0010C91
:100410000CFA00FCC2F814C00AE091F803C0BCF169
:10042000480F05D14FF0010C0CFA00FCC2F810C0C7
:10043000401C0828D1D31460B1F800C0BCF1FF0FF4
:1004400034DD546800202EE000F1080C4FF0010864
:1004500008FA0CF3B1F800C00CEA03069E4221D161
:1004600083004FF00F0C0CFA03F7BC4305FA03FCB2
:100470004CEA040491F803C0BCF1280F05D100F147
:10048000080C08FA0CF8C2F8148091F803C0BCF10B
:10049000480F07D100F1080C4FF0010808FA0CF8DA
:1004A000C2F81080401C0828CED35460BDE8F0810B
:1004B000F0B50A46002300240021002500F0004684
:1004C000B6F1004F02D11D4EF16901E01B4E71687B
:1004D000C0F3034583B200F44016B6F5401F08D1BF
:1004E00021F07061154E766826F07066134F7E60BD
:1004F00012E000F48016B6F5801F06D1032606FA36
:1005000005F4A14341F0706106E0460D360103FA9F
:1005100006F6B14341F0706122B1460D360103FA8F
:1005200006F6314300F00046B6F1004F02D1034E0B
:10053000F16101E0014E7160F0BD0000000001407A
:10054000416170470161704700BFFEE710B580212F
:100550000A48FFF7F7FF40210848FFF7F3FF00F0D4
:1005600037F880210548FFF7EBFF00F031F8402114
:100570000248FFF7E5FF00F02BF810BD000C01402A
:1005800010B580210648FFF7DBFF40210448FFF744
:10059000D9FF00F01DF880210148FFF7D3FF10BDFF
:1005A000000C014010B580210848FFF7CBFF00F098
:1005B0000FF840210548FFF7C5FF00F009F840217A
:1005C0000248FFF7BDFF00F003F810BD000C01402A
:1005D000032000BF011EA0F10102D0B2FAD1704782
:1005E00008B50121042001F0B3F80121082001F031
:1005F000AFF80121102001F0ABF84FF40140ADF845
:10060000000010208DF8030003208DF802006946D9
:100610002648FFF7C2FE48F22800ADF8000010207F
:100620008DF8030003208DF8020069462048FFF78B
:10063000B4FE0121084601F08BF801211D48FFF7A7
:1006400037FF0121082001F083F81020ADF80000E9
:100650008DF8030003208DF8020069461448FFF767
:100660009CFE10211248FFF76DFF0020FFF714FEDB
:100670004FF4C040ADF8000010208DF803000320B7
:100680008DF8020069460C48FFF787FE4FF40141E0
:100690000648FFF757FF48F238010548FFF752FFB9
:1006A0004FF4C0410448FFF74DFF08BD000801406A
:1006B000000C0140000230000010014013B5BDF8ED
:1006C00004100098FFF73CFF1CBD13B5BDF80410E3
:1006D0000098FFF737FF1CBD00BFFEE77047000022
:1006E00002490143024A1160704700000000FA0508
:1006F0000CED00E070B500240CE0002506E00020C1
:10070000074901EB85010855681CC5B2802DF6DB51
:10071000601CC4B2042CF0DB00F0DCF870BD0000FB
:100720005C190020F0B514460B46CF1701EB577744
:10073000C7F3C702CF1701EB5777FF10A1EBC7072D
:10074000FEB20123B340DDB24CB1134B03EB800387
:100750009B5C2B43104F07EB8007BB541AE00E4BFA
:1007600003EB80039B5CDB430B4F07EB8007BB5421
:10077000094B03EB80039B5C2B43074F07EB800780
:10078000BB54054B03EB80039B5CDB43024F07EB41
:100790008007BB54F0BD00005C19002008B50121A2
:1007A000082000F0D5FFC020ADF8000014208DF81F
:1007B000030003208DF8020069464548FFF7EDFD70
:1007C000C0214348FFF7BEFE0420ADF80000102012
:1007D0008DF8030003208DF8020069463C48FFF7BE
:1007E000DCFD04213A48FFF7ADFE04213848FFF74D
:1007F000A7FEC82001F01CFA04213548FFF7A2FE2D
:100800000021AE2000F03DF90021084600F039F942
:100810000021102000F035F90021084600F031F9E0
:100820000021B02000F02DF90021812000F029F9ED
:100830000021FF2000F025F90021A12000F021F97E
:100840000021A62000F01DF90021A82000F019F9D0
:1008500000211F2000F015F90021C82000F011F937
:100860000021D32000F00DF90021084600F009F91D
:100870000021D52000F005F90021802000F001F9C9
:100880000021D92000F0FDF800211F2000F0F9F828
:100890000021DA2000F0F5F80021084600F0F1F818
:1008A0000021DB2000F0EDF80021402000F0E9F805
:1008B00000218D2000F0E5F80021142000F0E1F87F
:1008C000FFF718FF0021AF2000F0DBF808BD0000A3
:1008D000000C014070B500242BE004F1B001C8B257
:1008E000002100F0CEF80021084600F0CAF80021EF
:1008F000102000F0C6F8FFF729FE782000F03AFF3C
:10090000FFF750FE402000F035FFFFF74BFE0025BB
:1009100009E0094901EB8501085D00F02BFFFFF7B5
:1009200041FE681CC5B2802DF3DBFFF729FE601C79
:10093000C4B2042CD1DB70BD5C1900201CB5064686
:100940000F4600BF2EE00120202380220021CDE9A8
:100950000060084600F02AF84FF000081EE001246D
:1009600014E000250EE0104800EB8400415D601E9D
:100970000D4A02EB800041551046417880F83D1247
:10098000681CC5B2042DEEDB601CC4B2902CE8DB01
:10099000FFF7A0FF08F1010000F0FF083801404513
:1009A000DDDC00BFCFE700005C1900202DE9FF4F20
:1009B00005460E4617461C46DDF838904FF0000AF3
:1009C0000095B3462046E21704EB5272D21021463E
:1009D000E31704EB5373DB10A4EBC3030BB1012348
:1009E00000E000231A44D4B24FF0000845E0002094
:1009F00003903BE00D9810F80A0002900AF1010004
:100A00001FFA80FA002001901DE0029800F001001A
:100A100028B14A4631462846FFF784FE0AE0B9F17C
:100A2000000F01D1012000E0002002463146284697
:100A3000FFF778FE029840100290701CC6B2019831
:100A4000401CC0B2019001980828DEDB681CC5B2CA
:100A50000098281AB84204D1009D0BF1080000F05C
:100A6000FF0B5E460398401CC0B203900398B84247
:100A7000C0DB08F1010000F0FF08A045B7DBBDE8CE
:100A8000FF8F70B505460C46FFF760FD782000F03B
:100A900071FEFFF787FD1CB1402000F06BFE02E005
:100AA000002000F067FEFFF77DFD284600F062FEA3
:100AB000FFF778FDFFF764FD70BD10B500F013F887
:100AC00000F0C0FB00F0E8FB00F008FC00F090FB39
:100AD00000F062FB00F09CFC00F040FC00F066FCC3
:100AE00000F002F810BD704770470000064800781B
:100AF000012808D105480078FF2804D2034800786F
:100B0000401C0249087070478A0200207D020020C4
:100B100010B500241A480078012830D1FFF724FBD3
:100B200004461848007820B116480078401E154940
:100B3000087014480078F8B913480078E0B900F05C
:100B4000C9FC12481249097850F82100114908607F
:100B50000F4800781049097888420DD00D48006888
:100B6000806B401C0B49096888630C480068401C76
:100B70000A490860FFF717FB2046FFF7F9FA10BD96
:100B80008A0200207D0200207E0200207C210020BD
:100B900080020020980200207F02002064020020D2
:100BA00010B500240B480078012811D1FFF7DCFABA
:100BB00004460948007840B908480078FF2804D264
:100BC00006480078401C054908702046FFF7D0FA17
:100BD00010BD00008A0200207D0200207E0200205D
:100BE00010B5002413480078012821D1FFF7BCFA82
:100BF000044611480078C0B10F480078401E0E49E5
:100C000008700846007860B90C48007828B920467A
:100C1000FFF7AEFA00F024FC0AE02046FFF7A8FA3E
:100C200006E02046FFF7A4FA02E02046FFF7A0FA0C
:100C300010BD00008A0200207E0200207D020020FC
:100C400010B50B48007890B900F044FC09480078D2
:100C50000949087009480749097850F821000849EE
:100C600008600846006807490860FFF784FA10BD6D
:100C70008A020020800200207F0200207C210020C8
:100C80009802002090020020704700002DE9FE4FDE
:100C900006460F4690461C464FF00009FFF764FADF
:100CA00081461F48007828B14846FFF761FA3C208A
:100CB000BDE8FE8F1B4850F8240060BB0120194995
:100CC00041F824004846FFF753FA002342463946CC
:100CD000304600F009F9824600200090019003465A
:100CE000024651460290204600F00AFC054635B9FE
:100CF0000D48007801280CD100F0B2FB09E0FFF7A5
:100D000033FA81460020074941F824004846FFF79E
:100D10002FFA2846CCE74846FFF72AFA2820C7E7EB
:100D20007D0200207C2100208A0200202DE9F04F66
:100D300085B081468A4693461C46DDE90F78129DB0
:100D400000200390FFF710FA03902348007830B199
:100D50000398FFF70DFA3C2005B0BDE8F08F1F485F
:100D600050F8240088BB01201C4941F82400039856
:100D7000FFF7FEF92A464146384600F0D1FC2B46E3
:100D80005A465146484600F0AFF804901198CDE914
:100D9000008002953A4620460E9B049900F0B0FB75
:100DA000064636B90E48007801280CD100F058FBF1
:100DB00009E0FFF7D9F903900020084941F8240021
:100DC0000398FFF7D5F93046C6E7FFE70398FFF72A
:100DD000CFF92820C0E700007D0200207C21002000
:100DE0008A020020704770472DE9F04106460F4601
:100DF00014464FF000081548007818B112202070F2
:100E0000BDE8F081FFF7B0F98046FF2E03D110480E
:100E1000006890F832600F4850F826502DB94046CF
:100E2000FFF7A6F943202070EAE7012D05D14046DF
:100E3000FFF79EF943202070E2E7EF644046FFF79A
:100E400097F90020207000BFDAE700007D02002043
:100E5000900200207C210020704700002DE9F0471F
:100E600007460D464FF0000A002028606860FFF733
:100E70007BF98246FF2F03D11948006890F8327041
:100E8000184850F827402CB95046FFF771F9432015
:100E9000BDE8F087012C04D15046FFF769F94320E3
:100EA000F6E7207C00F0010020B95046FFF760F91A
:100EB0004520EDE70026D4F80C90D4F80880504681
:100EC000FFF756F900E0761C58F8041B0029FAD009
:100ED000B0002860A9EB0600800068600020D7E71A
:100EE000900200207C21002070B5044610464FF08F
:100EF00080750560051F28462C606FF00106051FF0
:100F000028462E604FF01236051F28462E604FF0FF
:100F10000336051F28462E604FF00236051F28466F
:100F20002E607610051F28462E60051F2846296072
:100F30004FF01136051F28462E604FF01036051F62
:100F400028462E604FF00936051F28462E604FF0C8
:100F50000836051F28462E604FF00736051F284625
:100F60002E604FF00636051F28462E604FF00536DE
:100F7000051F28462E604FF00436051F28462E60B8
:100F800070BD00002DE9F04105464FF00008FFF765
:100F9000EBF88046FF2D05D12048006890F83250CC
:100FA000012608E01D48006890F83200A84201D1EF
:100FB000012600E000261A4850F825402CB940468A
:100FC000FFF7D6F84820BDE8F081012C04D1404657
:100FD000FFF7CEF84320F6E794F834701148C05D6F
:100FE00094F8351088430F49C8550846C05D30B99C
:100FF00094F836100C48007888430B49087094F830
:10100000300040F0080084F830004046FFF7B0F8A8
:10101000012E01D100F024FA0020D4E79002002034
:101020007C21002082020020810200207047000005
:1010300070B5054600261748007800B170BD164807
:10104000007800B1FAE71DB3FFF78EF806461348A3
:10105000006890F834401248005D1049096891F822
:10106000351088430E4908550846005D40B90B48C5
:10107000006890F836100B480078884309490870DA
:1010800006480068C5623046FFF772F800F0E8F9DC
:1010900000BFD3E77D0200207E02002090020020E6
:1010A000820200208102002070B5002600F072F854
:1010B000FFF75AF8064631480068401C2F4908607F
:1010C0003046FFF755F82E480078012853D12D48B7
:1010D000007820B1012804D0022809D103E00125BD
:1010E0000BE0002509E0012501202649087004E0F5
:1010F000012500202349087000BF00BF05B970BD5D
:101100002148046833E0FFF72FF80646E06A50B341
:10111000E06A401EE062E06A28BB94F8300000F00C
:10112000370040B114F8300F00F0C80020700120E3
:101130006070303C02E0002084F8310094F8300008
:1011400000F0080078B93434A078104909780843D1
:101150000E49087020780E49085C6178084314F83D
:1011600034190B4A505464693046FFF701F894F87B
:1011700032003F28C7D100BFC1E70000A80200200D
:101180008A020020A00200209C0200208102002090
:1011900082020020704700002DE9F04150211148E3
:1011A00000F02CF900250DE0681C86B20D4800EB1C
:1011B000051400EB06170020207067600AA0E060AD
:1011C000681C85B2042DEFD3064800EB05140020FF
:1011D0002070606004A0E060024804490860BDE837
:1011E000F08100002C1D00203F0000006C02002058
:1011F00070B5C821114800F001F900230FE0581C18
:1012000085B203EB83000D4901EB800405EB8500FB
:1012100001EB8006002020706660581C83B2092B09
:10122000EDD303EB8300054901EB8004002020701F
:10123000606008460249086070BD0000641C002020
:101240006802002000200A4908600A4908700A491B
:1012500008700A4908700A4908700A4908600A4972
:1012600008600A4908600A4908600A49087070471E
:10127000A80200207D0200207E0200208B020020B8
:101280008A020020640200208C02002078020020E4
:10129000740200207C02002000210A4A1170002004
:1012A00004E00021084A1154411CC8B20828F8D3B0
:1012B0000021064A1170064A1170064A1160064A5A
:1012C0001160704781020020820200207F0200200E
:1012D00080020020980200209002002070B54FF498
:1012E0007C71194800F08AF84FF48071174800F0BB
:1012F00085F8002413E0601CC5B2C4EBC40000EB09
:101300004000114901EB8003C5EBC50000EB400034
:1013100001EB80065E610EA0D864601CC4B20B2C89
:10132000E9D3C4EBC40000EB4000074901EB8003A4
:101330000020586106A0D8640020064908600248D1
:101340000549086070BD00007C2200207C2100203F
:101350003F0000009C0200209402002000B587B0EE
:101360000320002180220A4BCDE90132CDE9031090
:101370004FF6FF703F23074A00900748FFF7D6FC5F
:1013800006AA06A13F20FFF72FFD07B000BD000011
:101390007C1F0020782100203516000875432F4F50
:1013A000532D49492049646C6500000000B587B0A1
:1013B0000320002180220A4BCDE90132CDE9031040
:1013C0004FF6FE703E23074A00900748FFF7AEFC39
:1013D00006AA06A13E20FFF707FD07B000BD0000EA
:1013E0007C1D0020781F00205D16000875432F4FDC
:1013F000532D4949205374617400000004E0002219
:1014000000F8012B4A1E91B20029F8D17047000064
:101410002DE9F04178211048FFF7F0FF00240DE09E
:10142000601C86B204EB44000B4901EBC00506EBDF
:10143000460001EBC0072F60601C84B2042CEFD380
:1014400004EB4400044901EBC00500202860084675
:1014500002490860BDE8F0816C260020A40200204B
:1014600010B50024FEF780FE044613480078F8B952
:1014700012480078E0B900F02DF8114811490978B8
:1014800050F82100104908600E4800780F4909788B
:1014900088420DD00C480068806B401C0A490968DE
:1014A00088630B480068401C09490860FEF774FE19
:1014B0002046FEF75DFE10BD7D0200207E0200206A
:1014C0007C21002080020020980200207F02002062
:1014D000640200200649074A1278885C0649095CC4
:1014E000034A515C01EBC001044A117070470000CF
:1014F0007C1D000881020020820200208002002062
:101500002DE9F84F05460F4690469946DDE90AABAE
:1015100000200090FEF728FE00903F480468002C51
:1015200074D0183454F8040C3B4908600098FEF756
:101530001FFE44F8187CA576002020766076606156
:1015400044F814BC44F80CAC44F8108C0C9824F803
:10155000080C24F8069C0020E077E810207705F0BE
:101560000700E076217F01208840A077E17E0120FE
:101570008840607700206060E060A0602062A06228
:101580006062E062206325A06063183C002606E0EC
:10159000002104F1500040F82610701CC6B2002E45
:1015A000F6D02046FFF770FB2046FFF71BFCFEF746
:1015B000DBFD00901A4840F825401A480068606139
:1015C0000020A0611748006810B1164800688461C7
:1015D000144804603434A078134909780843124948
:1015E000087020781149085C6178084314F83419B0
:1015F0000E4A50540E480078401C0D49087000985F
:10160000FEF7B6FD0020BDE8F88FFFE70098FEF773
:10161000AFFD4220F7E70000940200203F000000E9
:101620007C2100209C0200208102002082020020F8
:101630008B020020002400BF00BFFEF795FD04468A
:1016400005480068401C044908602046FEF790FDEC
:10165000FFF7C9FBF1E700008C020020002400BF67
:1016600002E02820FFF7E4FC194800780028F8D0B1
:10167000184800686421B0FBF1F01649086008467C
:10168000006828B9002014490870FF20FFF77AFC91
:1016900000BFFEF769FD0446104800681049086065
:1016A00000200E4908602046FEF762FD0C480068E5
:1016B00008490968B0FBF1F0C0F164000649087000
:1016C000FFF7CAFB00F00EF81420FFF7B1FCE0E7CB
:1016D0007C02002074020020700200208C02002096
:1016E000780200207CB5002514E069462846FFF703
:1016F000B5FB064666B9094850F8254044B1012CAF
:1017000006D0D4E9020100EB810060640198A06476
:10171000681CC5B23F2DE8D97CBD00007C210020AB
:1017200002F0010343B102F002032BB102E0491EB3
:10173000002308C00029FAD17047000004E001220C
:1017400004210248FFF7FAF8F9E700000000002042
:1017500029B1064A92690243044B9A6104E0034AA4
:1017600092698243014B9A61704700000010024069
:101770007047000070B5044600251BE004F08000AF
:1017800020B180210D48FEF7DDFE03E080210B48EB
:10179000FEF7D6FEFEF71CFF40210848FEF7D2FEFA
:1017A000FEF716FF40210548FEF7CAFE6006040E4C
:1017B000681CC5B2082DE1DB70BD0000000C0140C3
:1017C00010B500F001F810BD0CB50020019000909C
:1017D0003348006840F480303149086000BF304829
:1017E000006800F4003000900198401C01900098BF
:1017F00018B90198B0F5A06FF1D12948006800F43C
:10180000003010B10120009001E00020009000980D
:10181000012843D12348006840F0100021490860A6
:101820000846006820F0030008600846006840F0A1
:10183000020008601A484068194948600846406834
:1018400048600846406840F4806048600846406848
:1018500020F47C1048600846406840F4E810486076
:101860000846006840F08070086000BF0C480068BF
:1018700000F000700028F9D00948406820F003000B
:10188000074948600846406840F00200486000BFD1
:101890000348406800F00C000828F9D10CBD000096
:1018A0000010024000200240042808D14FF0E0213F
:1018B000096941F004014FF0E022116107E04FF0A7
:1018C000E021096921F004014FF0E0221161704725
:1018D00010B505480078012805D1FFF707F9FFF793
:1018E000E3FBFFF715F910BD8A02002010B513487D
:1018F000006840F00100114908600846406810493E
:1019000008400E494860084600680E4908400B49E7
:1019100008600846006820F4802008600846406897
:1019200020F4FE0048604FF41F008860FFF748FF76
:101930004FF000600449086010BD00000010024034
:101940000000FFF8FFFFF6FE08ED00E010B50121F2
:10195000054800F00EF8012801D100F0C1F801217E
:10196000014800F003F810BD00040040CA430282A1
:10197000704730B50246002000230024158A05EA8E
:101980000103958905EA010413B10CB1012000E0BF
:10199000002030BD10B5FFF7A9F840F225511E48D0
:1019A00000F040F810B31C4800F066F8C4B21B48C1
:1019B000008800F40040C8B91848008800F480404E
:1019C00060B10A2C03D000201449088020E013489D
:1019D000008840F400401149088019E00D2C06D120
:1019E0000E48008840F480400C49088010E00B4805
:1019F0000088C0F30D000A490C5408480088401CB8
:101A00000649088008460088C72801DD00200880B4
:101A1000FFF77EF810BD0000003801406002002092
:101A20009C1B002070B502460024002300250020E6
:101A300040F66A16B14200D100BFC1F3421501F071
:101A40001F03012606FA03F3012D02D196893340C4
:101A500006E0022D02D1168A334001E0968A334017
:101A60000C12012606FA04F41688344013B10CB1A6
:101A7000012000E0002070BD01468888C0F3080006
:101A80007047000010B5124A00211248FEF70CFC06
:101A90000F48406841F21431884215D10C48007A51
:101AA000042811D10A48807A02280DD10848007B09
:101AB0000749C97A40EA01204DF6BA41884203D16C
:101AC00000200549086002E0FF200349086010BDBE
:101AD00048190020006400400402002000BFFEE717
:101AE00010B52C4803C8FEF7E9FDC82000F0A0F8A7
:101AF000284803C8FEF7E9FD274803C8FEF7DEFDC6
:101B0000C82000F095F8244803C8FEF7DEFD2348FE
:101B100003C8FEF7D3FDC82000F08AF81F4803C8A9
:101B2000FEF7D3FD1E4803C8FEF7C8FDC82000F02D
:101B30007FF81B4803C8FEF7C8FD1A4803C8FEF724
:101B4000BDFDC82000F074F8164803C8FEF7BDFDBF
:101B5000154803C8FEF7B2FDC82000F069F8124826
:101B600003C8FEF7B2FD114803C8FEF7A7FDC82061
:101B700000F05EF80D4803C8FEF7A7FD0C4803C847
:101B8000FEF79CFDC82000F053F8094803C8FEF793
:101B90009CFD10BD1C020020240200202C0200200D
:101BA000340200203C020020440200204C020020AD
:101BB0005402002002E008C8121F08C1002AFAD10E
:101BC00070477047002001E001C1121F002AFBD1BD
:101BD0007047000010B56FF00400FFF765FE104875
:101BE00000681049B0FBF1F00F4908700C4800681C
:101BF0000C49B0FBF1F441F28830444305200B4915
:101C000008804FF0E020006940F002004FF0E02132
:101C1000086108464461006940F00100086110BD98
:101C20000802002000127A005C0200205E02002000
:101C300070B504460F480078A0B10F48007888B905
:101C40000E480088844206DB0C48008894FBF0F5BF
:101C5000284600F01DF80948008894FBF0F100FBCD
:101C6000114084B24FF47A7104FB01F000F016F8D1
:101C700070BD00008A0200207D0200205E0200206C
:101C800010B5FEF78DFF10BD10B5FEF7A9FF10BD12
:101C900010B504462046FFF7CBF910BD2DE9F047FB
:101CA000074600264FF0E020D0F814901148007845
:101CB00007FB00F800BFFFF7E3FF4FF0E020856966
:101CC00011E04FF0E0208469AC420CD0AC4202D26B
:101CD000281B064403E0A9EB0400284406442546DB
:101CE000464500D300E0ECE700BFFFF7CDFFBDE8BD
:101CF000F08700005C02002001E0FFF7F1FEFCE746
:101D000010B54FF4A060FEF7EBFCFFF763FFFEF7A2
:101D100067FCFEF743FDFEF7D0FE0A23044A0021CC
:101D20000448FEF7B3FFFEF78BFF002010BD000054
:101D3000A8030020391D000870B50446002500BF27
:101D4000FEF712FA05460623084A00210848FEF766
:101D50009DFF0723074A00210748FEF797FF0A2047
:101D6000FFF710F92846FEF703FA70BDA80400201B
:101D7000F91C0008A80500203D170008000001001C
:101D80000200010003000100020001000400010044
:101D90000200010003000100020001000500010033
:101DA0000200010003000100020001000400010024
:101DB0000200010003000100020001000600010012
:101DC0000200010003000100020001000400010004
:101DD00002000100030001000200010005000100F3
:101DE00002000100030001000200010004000100E4
:101DF00002000100030001000200010007000100D1
:101E000002000100030001000200010004000100C3
:101E100002000100030001000200010005000100B2
:101E200002000100030001000200010004000100A3
:101E30000200010003000100020001000600010091
:101E40000200010003000100020001000400010083
:101E50000200010003000100020001000500010072
:101E60000200010003000100020001000400010063
:101E70000200010003000100020001009C1E000896
:101E800000000020AC020000400200083C1F0008D7
:101E9000AC0200203C280000C41B0008012F980859
:101EA000F6023A340C1810010008641808343A029B
:101EB00076803DC038060108CAC01731CD01030441
:101EC00018160151180A10889FF8C8405050806DAC
:101ED000514520E0A020390E00095C8084A4653FB4
:101EE00024040418121808050202050C081010300A
:101EF000202020222301011A210A1F201018080483
:101F0000020D0333020239C4217BA24ABC1009012D
:101F1000020304060708093C0C01401E141001408E
:101F20005A4008291119181132801A08085A010854
:0C1F30002910191842081908025310006B
:0400000508000145A9
:00000001FF
