:020000040800F2
:10000000E82A002045010008DD060008490500082F
:10001000D9060008A5020008451B000800000000E2
:10002000000000000000000000000000D9170008D8
:100030009903000800000000B70100083919000802
:100040005F0100085F0100085F0100085F01000810
:100050005F0100085F0100085F0100085F01000800
:100060005F0100085F0100085F0100085F010008F0
:100070005F0100085F0100085F0100085F010008E0
:100080005F0100085F0100085F0100085F010008D0
:10009000ED1A00085F0100085F0100085F01000819
:1000A0005F0100085F0100085F0100085F010008B0
:1000B0005F010008B51900085F0100085F01000832
:1000C0005F0100085F0100085F0100085F01000890
:1000D0005F010008FD1900085F0100085F010008CA
:1000E0005F0100085F0100085F0100085F01000870
:1000F0005F0100085F0100085F0100085F01000860
:100100005F0100085F0100085F0100085F0100084F
:100110005F0100085F0100085F0100085F0100083F
:100120005F0100085F0100085F0100085F0100082F
:10013000DFF80CD000F072F800480047691D000895
:10014000E82A00200648804706480047FEE7FEE709
:10015000FEE7FEE7FEE7FEE7FEE7FEE7FEE7FEE777
:100160005519000831010008EFF3108072B670478E
:1001700080F310887047204C204D25604FF000041C
:1001800084F309881E4C4FF0010525701D4C4FF07B
:100190008055256062B6FEE730B41A4C4FF08055AA
:1001A000256030BC704730B4164C4FF08055256048
:1001B00030BC704700BF72B6EFF3098028B1203819
:1001C00080E8F00F10490968086000B50F488047C3
:1001D0005DF804EB0E480F490A7802700A480E4990
:1001E0000A680260106890E8F00F203080F30988F8
:1001F0004EF0040E62B6704720ED00E00000FFFFF5
:100200008A02002004ED00E0900200209510000812
:100210007F0200208002002098020020064C074D3B
:1002200006E0E06840F0010394E8070098471034C6
:10023000AC42F6D3FFF780FF943D0008B43D0008C0
:1002400070B58C1810F8015B15F0070301D110F898
:10025000013B2A1106D110F8012B03E010F8016BC5
:1002600001F8016B5B1EF9D12B0705D40023521E48
:100270000DD401F8013BFAE710F8013BCB1A921CB0
:1002800003E013F8015B01F8015B521EF9D5A142AE
:10029000D8D3002070BD00000149086070470000FD
:1002A00000860D4200BFFEE710B500F5D87303EBE2
:1002B00001131B6803F004031372137A53B900F59A
:1002C000D87303EB01131B6840F2FF7404EA535325
:1002D000136009E000F5D87303EB01131B686FF09E
:1002E000604404EAD303536000F5D87303EB0113B1
:1002F0001B6803F00203537200F5D87303EB01137C
:100300005B6803F00F03937200F5D87303EB0113DE
:100310005B681B0AD37400F5D87303EB01139B6869
:10032000D37200F5D87303EB01139B681C0A147396
:1003300000F5D87303EB01139B681C0C547300F594
:10034000D87303EB01139B681B0E937300F5D873EE
:1003500003EB0113DB68D37300F5D87303EB0113D0
:10036000DB681C0A147400F5D87303EB0113DB6817
:100370001C0C547400F5D87303EB0113DB681B0EDF
:10038000937421B9C36843F02003C36003E0036999
:1003900043F02003036110BD70472DE9F041024690
:1003A00000250026002000230024002791F803C028
:1003B0000CF00F0591F803C00CF0100CBCF1000F0D
:1003C00003D091F802C04CEA050591F800C0BCF1D9
:1003D000000F31D0146800202BE04FF0010C0CFA14
:1003E00000F3B1F800C00CEA03069E4220D183005E
:1003F0004FF00F0C0CFA03F7BC4305FA03FC4CEA70
:10040000040491F803C0BCF1280F06D14FF0010C91
:100410000CFA00FCC2F814C00AE091F803C0BCF169
:10042000480F05D14FF0010C0CFA00FCC2F810C0C7
:10043000401C0828D1D31460B1F800C0BCF1FF0FF4
:1004400034DD546800202EE000F1080C4FF0010864
:1004500008FA0CF3B1F800C00CEA03069E4221D161
:1004600083004FF00F0C0CFA03F7BC4305FA03FCB2
:100470004CEA040491F803C0BCF1280F05D100F147
:10048000080C08FA0CF8C2F8148091F803C0BCF10B
:10049000480F07D100F1080C4FF0010808FA0CF8DA
:1004A000C2F81080401C0828CED35460BDE8F0810B
:1004B000F0B50A46002300240021002500F0004684
:1004C000B6F1004F02D11D4EF16901E01B4E71687B
:1004D000C0F3034583B200F44016B6F5401F08D1BF
:1004E00021F07061154E766826F07066134F7E60BD
:1004F00012E000F48016B6F5801F06D1032606FA36
:1005000005F4A14341F0706106E0460D360103FA9F
:1005100006F6B14341F0706122B1460D360103FA8F
:1005200006F6314300F00046B6F1004F02D1034E0B
:10053000F16101E0014E7160F0BD0000000001407A
:10054000416170470161704700BFFEE710B580212F
:100550000A48FFF7F7FF40210848FFF7F3FF00F0D4
:1005600037F880210548FFF7EBFF00F031F8402114
:100570000248FFF7E5FF00F02BF810BD000C01402A
:1005800010B580210648FFF7DBFF40210448FFF744
:10059000D9FF00F01DF880210148FFF7D3FF10BDFF
:1005A000000C014010B580210848FFF7CBFF00F098
:1005B0000FF840210548FFF7C5FF00F009F840217A
:1005C0000248FFF7BDFF00F003F810BD000C01402A
:1005D000032000BF011EA0F10102D0B2FAD1704782
:1005E00008B50121042001F0E7F80121082001F0FD
:1005F000E3F80121102001F0DFF84FF40140ADF8DD
:10060000000010208DF8030003208DF802006946D9
:100610002648FFF7C2FE48F22800ADF8000010207F
:100620008DF8030003208DF8020069462048FFF78B
:10063000B4FE0121084601F0BFF801211D48FFF773
:1006400037FF0121082001F0B7F81020ADF80000B5
:100650008DF8030003208DF8020069461448FFF767
:100660009CFE10211248FFF76DFF0020FFF714FEDB
:100670004FF4C040ADF8000010208DF803000320B7
:100680008DF8020069460C48FFF787FE4FF40141E0
:100690000648FFF757FF48F238010548FFF752FFB9
:1006A0004FF4C0410448FFF74DFF08BD000801406A
:1006B000000C0140000230000010014013B5BDF8ED
:1006C00004100098FFF73CFF1CBD13B5BDF80410E3
:1006D0000098FFF737FF1CBD00BFFEE77047000022
:1006E00002490143024A1160704700000000FA0508
:1006F0000CED00E070B500240CE0002506E00020C1
:10070000074901EB85010855681CC5B2802DF6DB51
:10071000601CC4B2042CF0DB00F0DCF870BD0000FB
:100720005C190020F0B514460B46CF1701EB577744
:10073000C7F3C702CF1701EB5777FF10A1EBC7072D
:10074000FEB20123B340DDB24CB1134B03EB800387
:100750009B5C2B43104F07EB8007BB541AE00E4BFA
:1007600003EB80039B5CDB430B4F07EB8007BB5421
:10077000094B03EB80039B5C2B43074F07EB800780
:10078000BB54054B03EB80039B5CDB43024F07EB41
:100790008007BB54F0BD00005C19002008B50121A2
:1007A000082001F009F8C020ADF8000014208DF8F1
:1007B000030003208DF8020069464548FFF7EDFD70
:1007C000C0214348FFF7BEFE0420ADF80000102012
:1007D0008DF8030003208DF8020069463C48FFF7BE
:1007E000DCFD04213A48FFF7ADFE04213848FFF74D
:1007F000A7FEC82001F050FA04213548FFF7A2FEF9
:100800000021AE2000F072F90021084600F06EF9D8
:100810000021102000F06AF90021084600F066F976
:100820000021B02000F062F90021812000F05EF983
:100830000021FF2000F05AF90021A12000F056F914
:100840000021A62000F052F90021A82000F04EF966
:1008500000211F2000F04AF90021C82000F046F9CD
:100860000021D32000F042F90021084600F03EF9B3
:100870000021D52000F03AF90021802000F036F95F
:100880000021D92000F032F900211F2000F02EF9BC
:100890000021DA2000F02AF90021084600F026F9AC
:1008A0000021DB2000F022F90021402000F01EF999
:1008B00000218D2000F01AF90021142000F016F913
:1008C000FFF718FF0021AF2000F010F908BD00006D
:1008D000000C014070B500242BE004F1B001C8B257
:1008E000002100F003F90021084600F0FFF8002184
:1008F000102000F0FBF8FFF729FE782000F06EFFD3
:10090000FFF750FE402000F069FFFFF74BFE002587
:1009100009E0094901EB8501085D00F05FFFFFF781
:1009200041FE681CC5B2802DF3DBFFF729FE601C79
:10093000C4B2042CD1DB70BD5C19002008B5804620
:1009400089469246002600274BE04FB910233246D5
:1009500008218020CDF800A000F046F8701CC6B237
:10096000464522D14FF0000B1AE0012410E000258B
:100970000AE01C4800EB8400415D601E194A02EB4E
:1009800080004155681CC5B2042DF2DB601CC4B266
:10099000902CECDBFFF79EFF0BF1010000F0FF0B4A
:1009A0004FEA09105845E0DC0026781CC7B2102F2A
:1009B00000D10027012410E000250AE0094800EBDF
:1009C0008400415D601E074A02EB80004155681CAF
:1009D000C5B2042DF2DB601CC4B2902CECDBFFF737
:1009E00079FFB2E75C1900202DE9FC4F07468846E5
:1009F00016461C46BB46CDF804802046E21704EBA1
:100A00005272D2102146E31704EB5373DB10A4EBB0
:100A1000C3030BB1012300E000231A44624392B2E6
:100A20000092002555E0102C05D12C4800EB461013
:100A300010F805A01BE0182C07D106EBC6002849CA
:100A400001EBC00010F805A011E0202C05D12548CD
:100A500000EBC61010F805A009E0402C05D1224893
:100A600000EB462010F805A001E0BDE8FC8F4FF038
:100A700000091CE00AF0010028B1414638460B9AF3
:100A8000FFF750FE09E00B9808B9012000E00020B4
:100A9000024641463846FFF745FE4FEA6A0A08F12A
:100AA000010000F0FF0809F1010000F0FF09B9F1B1
:100AB000080FDFDB781CC7B2A7EB0B00A04204D104
:100AC0005F4601980830C0B20190DDF80480681CD0
:100AD00085B200988542A6DB00BFC6E7CC37000888
:100AE000CC390008143A0008943A000870B505465D
:100AF0000C46FFF72BFD782000F070FEFFF752FD4B
:100B00001CB1402000F06AFE02E0002000F066FE0A
:100B1000FFF748FD284600F061FEFFF743FDFFF7B1
:100B20002FFD70BD10B500F013F800F0BFFB00F012
:100B3000E7FB00F007FC00F08FFB00F061FB00F02A
:100B40009BFC00F03FFC00F065FC00F002F810BDDB
:100B50007047704706480078012808D1054800789A
:100B6000FF2804D203480078401C024908707047EF
:100B70008A0200207D02002010B500241A48007867
:100B8000012830D1FFF7F0FA04461848007820B168
:100B900016480078401E1549087014480078F8B9C6
:100BA00013480078E0B900F0C9FC124812490978EE
:100BB00050F82100114908600F4800781049097861
:100BC00088420DD00D480068806B401C0B490968B5
:100BD00088630C480068401C0A490860FFF7E3FA84
:100BE0002046FFF7C5FA10BD8A0200207D020020D2
:100BF0007E0200207C21002080020020980200203C
:100C00007F0200206402002010B500240B48007809
:100C1000012811D1FFF7A8FA04460948007840B925
:100C200008480078FF2804D206480078401C05498F
:100C300008702046FFF79CFA10BD00008A020020D1
:100C40007D0200207E02002010B5002413480078A9
:100C5000012821D1FFF788FA044611480078C0B175
:100C60000F480078401E0E4908700846007860B9A9
:100C70000C48007828B92046FFF77AFA00F024FCE7
:100C80000AE02046FFF774FA06E02046FFF770FA04
:100C900002E02046FFF76CFA10BD00008A02002037
:100CA0007E0200207D02002010B50B48007890B92C
:100CB00000F044FC094800780949087009480749D0
:100CC000097850F82100084908600846006807497B
:100CD0000860FFF750FA10BD8A0200208002002051
:100CE0007F0200207C21002098020020900200203A
:100CF000704700002DE9FE4F06460F4690461C4601
:100D00004FF00009FFF730FA81461F48007828B1FC
:100D10004846FFF72DFA3C20BDE8FE8F1B4850F8EF
:100D2000240060BB0120194941F824004846FFF720
:100D30001FFA002342463946304600F009F9824640
:100D40000020009001900346024651460290204642
:100D500000F00AFC054635B90D48007801280CD191
:100D600000F0B2FB09E0FFF7FFF9814600200749D8
:100D700041F824004846FFF7FBF92846CCE74846EF
:100D8000FFF7F6F92820C7E77D0200207C2100202C
:100D90008A0200202DE9F04F85B081468A469346AD
:100DA0001C46DDE90F78129D00200390FFF7DCF967
:100DB00003902348007830B10398FFF7D9F93C201D
:100DC00005B0BDE8F08F1F4850F8240088BB012013
:100DD0001C4941F824000398FFF7CAF92A46414606
:100DE000384600F0D1FC2B465A465146484600F0A2
:100DF000AFF804901198CDE9008002953A4620465C
:100E00000E9B049900F0B0FB064636B90E480078F8
:100E100001280CD100F058FB09E0FFF7A5F9039079
:100E20000020084941F824000398FFF7A1F9304653
:100E3000C6E7FFE70398FFF79BF92820C0E700000B
:100E40007D0200207C2100208A020020704770472C
:100E50002DE9F04106460F4614464FF000081548AC
:100E6000007818B112202070BDE8F081FFF77CF9FE
:100E70008046FF2E03D11048006890F832600F487A
:100E800050F826502DB94046FFF772F943202070E4
:100E9000EAE7012D05D14046FFF76AF943202070AB
:100EA000E2E7EF644046FFF763F90020207000BFDF
:100EB000DAE700007D020020900200207C21002063
:100EC000704700002DE9F04707460D464FF0000A35
:100ED000002028606860FFF747F98246FF2F03D1A2
:100EE0001948006890F83270184850F827402CB91B
:100EF0005046FFF73DF94320BDE8F087012C04D1AF
:100F00005046FFF735F94320F6E7207C00F001005A
:100F100020B95046FFF72CF94520EDE70026D4F81C
:100F20000C90D4F808805046FFF722F900E0761CB8
:100F300058F8041B0029FAD0B0002860A9EB06007D
:100F4000800068600020D7E7900200207C2100200C
:100F500070B5044610464FF080750560051F2846A1
:100F60002C606FF00106051F28462E604FF01236E8
:100F7000051F28462E604FF00336051F28462E60B9
:100F80004FF00236051F28462E607610051F2846B2
:100F90002E60051F284629604FF01136051F284690
:100FA0002E604FF01036051F28462E604FF0093690
:100FB000051F28462E604FF00836051F28462E6074
:100FC0004FF00736051F28462E604FF00636051FE6
:100FD00028462E604FF00536051F28462E604FF03C
:100FE0000436051F28462E6070BD00002DE9F04133
:100FF00005464FF00008FFF7B7F88046FF2D05D1F2
:101000002048006890F83250012608E01D4800682A
:1010100090F83200A84201D1012600E000261A48CB
:1010200050F825402CB94046FFF7A2F84820BDE80B
:10103000F081012C04D14046FFF79AF84320F6E7EF
:1010400094F834701148C05D94F8351088430F4906
:10105000C8550846C05D30B994F836100C48007881
:1010600088430B49087094F8300040F0080084F879
:1010700030004046FFF77CF8012E01D100F024FA41
:101080000020D4E7900200207C2100208202002072
:10109000810200207047000070B505460026174801
:1010A000007800B170BD1648007800B1FAE71DB3B2
:1010B000FFF75AF806461348006890F83440124883
:1010C000005D1049096891F8351088430E490855AC
:1010D0000846005D40B90B48006890F836100B4890
:1010E000007888430949087006480068C5623046A0
:1010F000FFF73EF800F0E8F900BFD3E77D020020DB
:101100007E02002090020020820200208102002046
:1011100070B5002600F072F8FFF726F80646314851
:101120000068401C2F4908603046FFF721F82E4820
:101130000078012853D12D48007820B1012804D02F
:10114000022809D103E001250BE0002509E0012573
:1011500001202649087004E0012500202349087079
:1011600000BF00BF05B970BD2148046833E0FEF739
:10117000FBFF0646E06A50B3E06A401EE062E06AA8
:1011800028BB94F8300000F0370040B114F8300F5D
:1011900000F0C800207001206070303C02E00020A8
:1011A00084F8310094F8300000F0080078B9343445
:1011B000A0781049097808430E49087020780E4934
:1011C000085C6178084314F834190B4A5054646978
:1011D0003046FEF7CDFF94F832003F28C7D100BF5C
:1011E000C1E70000A80200208A020020A00200201F
:1011F0009C02002081020020820200207047000033
:101200002DE9F0415021114800F02CF900250DE0A6
:10121000681C86B20D4800EB051400EB0617002091
:10122000207067600AA0E060681C85B2042DEFD3CF
:10123000064800EB051400202070606004A0E06008
:10124000024804490860BDE8F08100002C1D002020
:101250003F0000006C02002070B5C821114800F06A
:1012600001F900230FE0581C85B203EB83000D4900
:1012700001EB800405EB850001EB80060020207067
:101280006660581C83B2092BEDD303EB830005493C
:1012900001EB80040020207060600846024908606D
:1012A00070BD0000641C00206802002000200A4974
:1012B00008600A4908700A4908700A4908700A4912
:1012C00008700A4908600A4908600A4908600A4922
:1012D00008600A4908707047A80200207D020020BB
:1012E0007E0200208B0200208A020020640200207F
:1012F0008C02002078020020740200207C02002072
:1013000000210A4A1170002004E00021084A11540B
:10131000411CC8B20828F8D30021064A1170064AB9
:101320001170064A1160064A116070478102002060
:10133000820200207F02002080020020980200200C
:101340009002002070B54FF47C71194800F08AF8C3
:101350004FF48071174800F085F8002413E0601CFA
:10136000C5B2C4EBC40000EB4000114901EB80039F
:10137000C5EBC50000EB400001EB80065E610EA0EE
:10138000D864601CC4B20B2CE9D3C4EBC40000EBDE
:101390004000074901EB80030020586106A0D86493
:1013A00000200649086002480549086070BD000039
:1013B0007C2200207C2100203F0000009C020020B5
:1013C0009402002000B587B00320002180220A4B40
:1013D000CDE90132CDE903104FF6FF703F23074AF4
:1013E00000900748FFF7D6FC06AA06A13F20FFF7AA
:1013F0002FFD07B000BD00007C1F002078210020D9
:101400009D16000875432F4F532D49492049646CA0
:101410006500000000B587B00320002180220A4B40
:10142000CDE90132CDE903104FF6FE703E23074AA5
:1014300000900748FFF7AEFC06AA06A13E20FFF782
:1014400007FD07B000BD00007C1D0020781F0020B4
:10145000C516000875432F4F532D49492053746119
:101460007400000004E0002200F8012B4A1E91B233
:101470000029F8D1704700002DE9F041782110488B
:10148000FFF7F0FF00240DE0601C86B204EB44007F
:101490000B4901EBC00506EB460001EBC0072F60CE
:1014A000601C84B2042CEFD304EB4400044901EB2C
:1014B000C00500202860084602490860BDE8F081A8
:1014C0006C260020A402002010B50024FEF74CFE7C
:1014D000044613480078F8B912480078E0B900F0E3
:1014E0002DF811481149097850F821001049086079
:1014F0000E4800780F49097888420DD00C480068E2
:10150000806B401C0A49096888630B480068401CCE
:1015100009490860FEF740FE2046FEF729FE10BD8F
:101520007D0200207E0200207C210020800200201D
:10153000980200207F020020640200200649074A2A
:101540001278885C0649095C034A515C01EBC001D2
:10155000044A117070470000943C0008810200208A
:1015600082020020800200202DE9F84F05460F4638
:1015700090469946DDE90AAB00200090FEF7F4FDA5
:1015800000903F480468002C74D0183454F8040CC0
:101590003B4908600098FEF7EBFD44F8187CA576FF
:1015A000002020766076606144F814BC44F80CACEE
:1015B00044F8108C0C9824F8080C24F8069C0020A1
:1015C000E077E810207705F00700E076217F012022
:1015D0008840A077E17E012088406077002060602D
:1015E000E060A0602062A0626062E062206325A0EB
:1015F0006063183C002606E0002104F1500040F82A
:101600002610701CC6B2002EF6D02046FFF770FBE5
:101610002046FFF71BFCFEF7A7FD00901A4840F894
:1016200025401A48006860610020A06117480068E2
:1016300010B1164800688461144804603434A078FE
:101640001349097808431249087020781149085C49
:101650006178084314F834190E4A50540E48007843
:10166000401C0D4908700098FEF782FD0020BDE87F
:10167000F88FFFE70098FEF77BFD4220F7E70000B8
:10168000940200203F0000007C2100209C020020EA
:1016900081020020820200208B020020002400BF73
:1016A00000BFFEF761FD044605480068401C044980
:1016B00008602046FEF75CFDFFF7C9FBF1E700007C
:1016C0008C020020002400BF02E02820FFF7E4FC89
:1016D000194800780028F8D0184800686421B0FB49
:1016E000F1F0164908600846006828B9002014493E
:1016F0000870FF20FFF77AFC00BFFEF735FD0446B7
:10170000104800681049086000200E490860204613
:10171000FEF72EFD0C48006808490968B0FBF1F09F
:10172000C0F1640006490870FFF7CAFB00F00EF82C
:101730001420FFF7B1FCE0E77C02002074020020D7
:10174000700200208C020020780200207CB5002569
:1017500014E069462846FFF7B5FB064666B9094816
:1017600050F8254044B1012C06D0D4E9020100EB29
:10177000810060640198A064681CC5B23F2DE8D95F
:101780007CBD00007C21002002F0010343B102F087
:1017900002032BB102E0491E002308C00029FAD140
:1017A000704708E0FFF796F8012204211020FFF7A8
:1017B000C5F8FFF78FF8F5E729B1064A92690243A9
:1017C000044B9A6104E0034A92698243014B9A6197
:1017D00070470000001002407047000070B50446DA
:1017E00000251BE004F0800020B180210D48FEF7A9
:1017F000A9FE03E080210B48FEF7A2FEFEF7E8FEFB
:1018000040210848FEF79EFEFEF7E2FE4021054813
:10181000FEF796FE6006040E681CC5B2082DE1DBDB
:1018200070BD0000000C014010B500F001F810BDC3
:101830000CB50020019000903348006840F48030DF
:101840003149086000BF3048006800F40030009063
:101850000198401C0190009818B90198B0F5A06F4C
:10186000F1D12948006800F4003010B10120009047
:1018700001E0002000900098012843D1234800682F
:1018800040F01000214908600846006820F003007D
:1018900008600846006840F0020008601A48406886
:1018A000194948600846406848600846406840F466
:1018B000806048600846406820F47C104860084614
:1018C000406840F4E81048600846006840F08070C6
:1018D000086000BF0C48006800F000700028F9D0D4
:1018E0000948406820F003000749486008464068FE
:1018F00040F00200486000BF0348406800F00C0060
:101900000828F9D10CBD0000001002400020024060
:10191000042808D14FF0E021096941F004014FF09B
:10192000E022116107E04FF0E021096921F0040194
:101930004FF0E0221161704710B50548007801288A
:1019400005D1FFF707F9FFF7E3FBFFF715F910BD26
:101950008A02002010B51348006840F001001149C8
:10196000086008464068104908400E49486008462B
:1019700000680E4908400B4908600846006820F4DA
:10198000802008600846406820F4FE0048604FF45C
:101990001F008860FFF748FF4FF0006004490860AF
:1019A00010BD0000001002400000FFF8FFFFF6FE2F
:1019B00008ED00E010B50121054800F00EF80128FF
:1019C00001D100F0C1F80121014800F003F810BD79
:1019D00000040040CA430282704730B5024600202E
:1019E00000230024158A05EA0103958905EA01040C
:1019F00013B10CB1012000E0002030BD10B5FFF79D
:101A0000A9F840F225511E4800F040F810B31C48D8
:101A100000F066F8C4B21B48008800F40040C8B962
:101A20001848008800F4804060B10A2C03D00020E0
:101A30001449088020E01348008840F40040114910
:101A4000088019E00D2C06D10E48008840F4804033
:101A50000C49088010E00B480088C0F30D000A49CB
:101A60000C5408480088401C064908800846008835
:101A7000C72801DD00200880FFF77EF810BD0000B8
:101A800000380140600200209C1B002070B5024617
:101A9000002400230025002040F66A16B14200D140
:101AA00000BFC1F3421501F01F03012606FA03F33C
:101AB000012D02D19689334006E0022D02D1168A0B
:101AC000334001E0968A33400C12012606FA04F4F2
:101AD0001688344013B10CB1012000E0002070BD25
:101AE00001468888C0F308007047000010B5124A0C
:101AF00000211248FEF7D8FB0F48406841F214312C
:101B0000884215D10C48007A042811D10A48807AFD
:101B100002280DD10848007B0749C97A40EA012014
:101B20004DF6BA41884203D100200549086002E021
:101B3000FF200349086010BD4819002000640040E0
:101B40000402002000BFFEE710B52C4803C8FEF7D2
:101B5000B5FDC82000F0A0F8284803C8FEF7B5FD81
:101B6000274803C8FEF7AAFDC82000F095F82448CE
:101B700003C8FEF7AAFD234803C8FEF79FFDC8204F
:101B800000F08AF81F4803C8FEF79FFD1E4803C8EF
:101B9000FEF794FDC82000F07FF81B4803C8FEF74D
:101BA00094FD1A4803C8FEF789FDC82000F074F8B8
:101BB000164803C8FEF789FD154803C8FEF77EFDE9
:101BC000C82000F069F8124803C8FEF77EFD1148EE
:101BD00003C8FEF773FDC82000F05EF80D4803C887
:101BE000FEF773FD0C4803C8FEF768FDC82000F03F
:101BF00053F8094803C8FEF768FD10BD1C02002019
:101C0000240200202C020020340200203C0200208C
:101C1000440200204C0200205402002002E008C8C8
:101C2000121F08C1002AFAD170477047002001E056
:101C300001C1121F002AFBD17047000010B56FF0E0
:101C40000400FFF765FE104800681049B0FBF1F092
:101C50000F4908700C4800680C49B0FBF1F441F2E0
:101C60008830444305200B4908804FF0E02000698C
:101C700040F002004FF0E02108610846446100692D
:101C800040F00100086110BD0802002000127A0037
:101C90005C0200205E02002070B504460F48007808
:101CA000A0B10F48007888B90E480088844206DB4E
:101CB0000C48008894FBF0F5284600F01DF8094810
:101CC000008894FBF0F100FB114084B24FF47A716C
:101CD00004FB01F000F016F870BD00008A0200203D
:101CE0007D0200205E02002010B5FEF78DFF10BDC2
:101CF00010B5FEF7A9FF10BD10B504462046FFF74A
:101D0000CBF910BD2DE9F047074600264FF0E02043
:101D1000D0F814901148007807FB00F800BFFFF7D7
:101D2000E3FF4FF0E020856911E04FF0E020846987
:101D3000AC420CD0AC4202D2281B064403E0A9EB13
:101D40000400284406442546464500D300E0ECE75D
:101D500000BFFFF7CDFFBDE8F08700005C02002068
:101D600001E0FFF7F1FEFCE710B54FF4A060FEF7CD
:101D7000B7FCFFF763FFFEF733FCFEF70FFDFEF73E
:101D8000D1FE0A23044A00210448FEF7B3FFFEF700
:101D90008BFF002010BD0000A8030020A11D00083B
:101DA00070B50446002500BFFEF7DEF905460623A0
:101DB000084A00210848FEF79DFF0723074A002133
:101DC0000748FEF797FF0A20FFF710F92846FEF7AD
:101DD000CFF970BDA8040020611D0008A8050020EF
:101DE000A31700080000000000000000002F000002
:101DF00000000700070000147F147F1400242A7FCE
:101E00002A1200626408132300364955225000004C
:101E10000503000000001C224100000041221C00BC
:101E20000014083E08140008083E0808000000A03E
:101E3000600000080808080800006060000000203A
:101E400010080402003E5149453E0000427F400018
:101E5000004261514946002141454B31001814129E
:101E60007F10002745454539003C4A49493000016B
:101E70007109050300364949493600064949291EBA
:101E8000000036360000000056360000000814221C
:101E9000410000141414141400004122140800021C
:101EA0000151090600324959513E007C1211127C41
:101EB000007F49494936003E41414122007F41416E
:101EC000221C007F49494941007F09090901003E60
:101ED0004149497A007F0808087F0000417F41009E
:101EE000002040413F01007F08142241007F404014
:101EF0004040007F020C027F007F0408107F003EFC
:101F00004141413E007F09090906003E4151215EE1
:101F1000007F091929460046494949310001017FDE
:101F20000101003F4040403F001F2040201F003F74
:101F30004038403F00631408146300070870080726
:101F400000615149454300007F41410000552A5539
:101F50002A55000041417F000004020102040040B4
:101F600040404040000001020400002054545478D6
:101F7000007F4844443800384444442000384444F6
:101F8000487F00385454541800087E090102001894
:101F9000A4A4A47C007F080404780000447D4000D1
:101FA000004080847D00007F102844000000417FB5
:101FB0004000007C04180478007C08040478003891
:101FC0004444443800FC242424180018242418FC19
:101FD000007C0804040800485454542000043F4482
:101FE0004020003C4040207C001C2040201C003C45
:101FF0004030403C004428102844001CA0A0A07C95
:10200000004464544C4414141414141400000000CC
:1020100000000000000000000000FC0000000000C4
:1020200002000000000C020C020000000000000092
:1020300090D0BCD0BC900003000300001824FE44E4
:102040008C000302070201001824D8B04C80000362
:1020500000010201C038E438E0000102020102027E
:10206000080600000000000000000000000000F86A
:102070000402000000010204000204F80000000451
:10208000020100009060F860900000000100000074
:102090002020FC20200000000100000000000000C3
:1020A0000000080600000000202020202000000082
:1020B000000000000000000000000002000000001E
:1020C0000080601C0200040300000000F804040407
:1020D000F8000102020201000008FC0000000002FA
:1020E00003020000188444241800030202020200C4
:1020F00008042424D80001020202010040B088FC38
:1021000080000000000302003C242424C4000102DB
:1021100002020100F824242CC00001020202010086
:102120000C04E41C0400000003000000D824242454
:10213000D80001020202010038444444F8000003C0
:102140000202010000001000000000000200000078
:102150000000200000000000060000000020508861
:102160000402000000000102909090909000000096
:10217000000000000002048850200002010000005E
:102180001804C4241800000002000000F804E494BD
:10219000F80001020202020000E09CF0800002034D
:1021A0000000030204FC2424D80002030202010000
:1021B000F80404040C0001020202010004FC0404FF
:1021C000F80002030202010004FC24740C00020364
:1021D0000202030004FC24740C000203020000004D
:1021E000F0080444CC4000010202010004FC20205D
:1021F000FC040203000003020404FC0404000202C5
:1022000003020200000404FC0404060404030000AA
:1022100004FC24D00C0402030200030204FC0400AA
:102220000000020302020203FC3CC03CFC0003006D
:102230000300030004FC30C4FC040203020003009A
:10224000F8040404F80001020202010004FC242442
:102250001800020302000000F8848404F800010260
:102260000207050004FC2464980002030200030234
:10227000182424448C000302020201000C04FC0414
:102280000C0000020302000004FC0000FC0400013A
:1022900002020100047C80E01C0400000300000036
:1022A0001CE03CE01C00000300030000049C609C58
:1022B0000400020300030200041CE01C04000002EE
:1022C000030200000C84641C0400020302020300E9
:1022D0000000FE020200000007040400000E30C0EF
:1022E0000000000000010200000202FE00000004E5
:1022F00004070000000402040000000000000000C9
:10230000000000000000080808080808000002009B
:1023100000000000000000000040A0A0C00000017C
:102320000202030204FC2020C0000003020201009C
:1023300000C02020600000010202020000C0202432
:10234000FC0000010202030200C0A0A0C0000001C6
:10235000020202000020F82424040002030202000A
:102360000040A0A0602000070A0A0A0404FC202004
:10237000C0000203020003020020E400000000028B
:1023800003020000000020E4000008080807000025
:1023900004FC80E020200203020003020404FC008D
:1023A0000000020203020200E020E020C00003005F
:1023B0000300030020E02020C0000203020003020B
:1023C00000C02020C00000010202010020E0202007
:1023D000C000080F0A02010000C02020E000000138
:1023E000020A0F0820E04020200002030200000043
:1023F0000060A0A020000002020203000020F820DC
:10240000000000000102020020E00020E0000001C6
:102410000202030220E0208060200000030100008F
:102420006080E080600000030003000020608060A6
:10243000200002030003020020E020806020080842
:10244000070100000020A06020000002030202003B
:10245000000020DE0200000000070400000000FF72
:1024600000000000000F00000002DE200000000459
:102470000700000002010204040200000000000046
:10248000000000000000000000000000000000004C
:10249000000000F8000000000000003330000000E1
:1024A00000100C06100C06000000000000000000E8
:1024B00040C07840C0784000043F04043F0404005A
:1024C000007088FC08300000001820FF211E00006A
:1024D000F008F000E018000000211C031E211E007F
:1024E00000F00888700000001E2123241927211005
:1024F00010160E00000000000000000000000000A8
:10250000000000E01804020000000007182040004E
:1025100000020418E000000000402018070000003E
:10252000404080F0804040000202010F01020200A2
:10253000000000F0000000000101011F0101010086
:10254000000000000000000080B0700000000000EB
:102550000000000000000000000101010101010174
:10256000000000000000000000303000000000000B
:1025700000000000806018040060180601000000E0
:1025800000E010080810E000000F102020100F00DD
:10259000001010F8000000000020203F2020000064
:1025A00000700808088870000030282422213000BC
:1025B00000300888884830000018202020110E00C4
:1025C0000000C02010F8000000070424243F24006D
:1025D00000F80888880808000019212020110E0042
:1025E00000E0108888180000000F112020110E0054
:1025F00000380808C83808000000003F000000004C
:102600000070880808887000001C222121221C000C
:1026100000E010080810E0000000312222110F0035
:10262000000000C0C00000000000003030000000CA
:10263000000000800000000000008060000000003A
:102640000000804020100800000102040810200053
:10265000404040404040400004040404040404009E
:102660000008102040800000002010080402010033
:10267000007048080808F000000000303601000033
:10268000C030C828E810E0000718272423140B00E6
:102690000000C038E0000000203C23020227382060
:1026A00008F8888888700000203F202020110E0044
:1026B000C03008080808380007182020201008003B
:1026C00008F808080810E000203F202020100F0024
:1026D00008F88888E8081000203F202023201800F0
:1026E00008F88888E8081000203F20000300000058
:1026F000C03008080838000007182020221E0200F9
:1027000008F808000008F808203F210101213F20B7
:10271000000808F8080800000020203F20200000E2
:1027200000000808F8080800C08080807F000000D2
:1027300008F888C028180800203F2001263820000B
:1027400008F8080000000000203F20202020300072
:1027500008F8F800F8F80800203F003F003F20008C
:1027600008F830C00008F808203F200007183F0094
:10277000E01008080810E0000F10202020100F00C3
:1027800008F808080808F000203F210101010000B6
:10279000E01008080810E0000F18242438504F00FB
:1027A00008F8888888887000203F2000030C3020BB
:1027B00000708808080838000038202121221C00F9
:1027C000180808F8080818000000203F2000000042
:1027D00008F808000008F808001F202020201F002B
:1027E0000878880000C83808000007380E0100008B
:1027F000F80800F80008F800033C0700073C030055
:10280000081868808068180820302C03032C3020BA
:102810000838C800C83808000000203F2000000029
:1028200010080808C8380800203826212020180081
:10283000000000FE020202000000007F4040400055
:10284000000C30C000000000000000010638C0008D
:1028500000020202FE000000004040407F00000035
:10286000000004020202040000000000000000005A
:102870000000000000000000808080808080808058
:102880000002020400000000000000000000000040
:1028900000008080808000000019242222223F2036
:1028A00008F8008080000000003F112020110E0079
:1028B0000000008080800000000E11202020110008
:1028C000000000808088F800000E112020103F20BA
:1028D0000000808080800000001F2222222213003E
:1028E000008080F0888888180020203F2020000089
:1028F0000000808080808000006B9494949360003E
:1029000008F8008080800000203F210000203F2048
:1029100000809898000000000020203F2020000048
:10292000000000809898000000C08080807F000038
:1029300008F8000080808000203F24022D30200015
:10294000000808F8000000000020203F20200000C0
:102950008080808080808000203F20003F20003FDA
:102960008080008080800000203F210000203F20E8
:102970000000808080800000001F202020201F0099
:10298000808000808000000080FFA12020110E00C8
:102990000000008080808000000E112020A0FF80B9
:1029A000808080008080800020203F212000010066
:1029B00000008080808080000033242424241900BB
:1029C000008080E0808000000000001F20200000C8
:1029D0008080000000808000001F202020103F2009
:1029E000808080000080808000010E300806010099
:1029F00080800080008080800F300C030C300F003E
:102A000000808000808080000020312E0E31200068
:102A1000808080000080808080818E701806010098
:102A200000808080808080000021302C22213000B6
:102A300000000000807C020200000000003F4040D7
:102A400000000000FF00000000000000FF00000088
:102A50000002027C800000000040403F00000000B7
:102A60000006010102020404000000000000000052
:102A70000000000000000000000000000000000056
:102A80000000000000000000000000000000000046
:102A9000000000000000000000F0F0F00000000066
:102AA0000000000000017F010000000000000000A5
:102AB000001C1C1C0000000000008060301C8C60AA
:102AC000301C0C00000000000000000000000000AE
:102AD000000000000000000000000000000000E016
:102AE0000000000000E000000086E69F86868686E3
:102AF000E69F860000011F01010101011F01010085
:102B0000000080C06020F820E0C000000000030743
:102B10000C18FF70E18100000000070F10107F10FB
:102B20000F0700008060206080000000E0200000AF
:102B30000F3020309F70DC371030C0000000100EC6
:102B400003000718101807000000C02020E0C00094
:102B50000000000080E01F38E88703C43C04000048
:102B6000070F1810100B070D1010080000808C4C78
:102B7000380000000000000000000000000000001D
:102B80000000000000000000000000000000000045
:102B900000000000000080E0300804000000000099
:102BA00000FEFF0100000000000000000000030F15
:102BB0001820400000040830E08000000000000001
:102BC0000000000001FFFE0000000000004020188F
:102BD0000F03000000000000000000000000C00023
:102BE00000000000004266663C18FF183C66664222
:102BF00000000000000003000000000000000000D2
:102C00000000800000000000001010101010FF10E5
:102C10001010101000000000000003000000000071
:102C200000000000000000000000000000000000A4
:102C3000000000000000000000808C4C3800000004
:102C40000000000000000000000000000000000084
:102C500000101010101010101010100000000000D4
:102C60000000000000000000000000000000000064
:102C70000000000000000000000000000000000054
:102C800000001C1C1C0000000000000000000000F0
:102C900000000000E0380C000000000080701C0301
:102CA000000000000060380E01000000000000007D
:102CB000000080C060202060C080000000FEFF0196
:102CC0000000000001FFFE000001070E18101018A0
:102CD0000E0701000000808080C0E00000000000BE
:102CE0000000000000FFFF000000000000001010C6
:102CF000101F1F10101000000080402020202060B6
:102D0000C080000000030300804020381F0700003F
:102D1000001C1A1918181818181F00000080C0206D
:102D2000202060C080000000000303001010182F56
:102D3000E780000000070F10101010180F070000A8
:102D4000000000000000C0E0F000000000C0B088FB
:102D5000868180FFFF808000000000000010101FAF
:102D60001F1010000000E0606060606060600000A4
:102D700000003F1008080818F0E0000000070B10E2
:102D80001010101C0F030000000080C04020202005
:102D9000E0C0000000FCFF211008080818F0E00067
:102DA0000001070C18101010080F03000000C0E00D
:102DB0006060606060E06000000003000000E018F8
:102DC0000700000000000000001F1F0000000000BE
:102DD0000080C0602020202060C080000087EF2C91
:102DE0001818303068CF830000070F08101010103B
:102DF000180F07000000C0C020202020C080000065
:102E0000001F3F604040402010FFFE0000000C1CEF
:102E1000101010080F030000000000000000000068
:102E20000000000000000000000E0E0E0000000078
:102E300000000000001C1C1C00000000000000003E
:102E4000000000000000000000000000000C0C006A
:102E500000000000000000000058380000000000E2
:102E6000000000000000008040201000000010283A
:102E70004482010000000000000000000000010288
:102E80000408100000000000000000000000000026
:102E9000008484848484848484848400000000000A
:102EA0000000000000000000000010204080000032
:102EB0000000000000000000000001824428100013
:102EC00000001008040201000000000000C02020E3
:102ED0001010101030E0C0000003030000F01008D4
:102EE0000C070300000000001C1C1C000000000078
:102EF000000000C0406020202040C00000FCFF0116
:102F0000F00E03C1FE03807F0001070E08111110AF
:102F1000110904020000000080E0E0000000000051
:102F20000000807C4340477FF880000010181F108D
:102F300000000000131F1C1020E0E0202020206073
:102F4000C080000000FFFF10101010182FE7800055
:102F5000101F1F1010101010180F0700000080C065
:102F6000402020202060E00000FCFF010000000065
:102F7000000001000001070E1810101008040300E3
:102F800020E0E02020202040C080000000FFFF0063
:102F90000000000001FFFE00101F1F101010180895
:102FA0000E07010020E0E02020202020206080008B
:102FB00000FFFF101010107C00000000101F1F10F9
:102FC000101010101018060020E0E0202020202013
:102FD0006060800000FFFF101010107C00000100F6
:102FE000101F1F100000000000000000000080C043
:102FF0006020202040E0000000FCFF010000404075
:10300000C0C140400001070E181010100F0F000043
:1030100020E0E0200000000020E0E02000FFFF10A2
:103020001010101010FFFF00101F1F1000000000F4
:10303000101F1F100000202020E0E02020200000B2
:103040000000000000FFFF00000000000000101062
:10305000101F1F101010000000000000202020E0B2
:10306000E020202000000000000000FFFF00000022
:103070000060E0808080C07F3F00000020E0E02012
:10308000000020A06020200000FFFF30187CE3C07B
:1030900000000000101F1F10000001131F1C18105B
:1030A00020E0E020000000000000000000FFFF0022
:1030B0000000000000000000101F1F101010101072
:1030C0001018060020E0E0E000000000E0E0E02052
:1030D00000FF013FFEC0E01E01FFFF00101F1000B7
:1030E000031F0300101F1F1020E0E0C000000000BD
:1030F0000020E02000FF0003071C78E08000FF00B4
:10310000101F100000000000030F1F00000080C00F
:1031100060202060C080000000FEFF010000000071
:1031200000FFFE000001070E181010180C07010028
:1031300020E0E0202020202060C0800000FFFF2051
:1031400020202020301F0F00101F1F100000000043
:1031500000000000000080C060202060C0800000EF
:1031600000FEFF010000000000FFFE000001070E4E
:103170001111133C7C67210020E0E020202020205A
:1031800060C0800000FFFF101030F0D0080F070073
:10319000101F1F10000000030F1C10100080C060E3
:1031A000202020204040E00000070F0C181830308D
:1031B00060E08100001F0C0810101010180F0700AD
:1031C0008060202020E0E0202020608001000000BE
:1031D00000FFFF000000000100000000101F1F1092
:1031E0000000000020E0E020000000000020E020BF
:1031F00000FFFF00000000000000FF0000070F18A4
:1032000010101010100807002060E0E020000000FF
:1032100020E060200000077FF88000807C03000031
:1032200000000000071F1C070000000020E0E02055
:1032300000E0E0200020E0200007FFF8E01FFFFC96
:10324000E01F00000000031F0300011F0300000037
:10325000002060E0A0000020E060200000000003EB
:103260008F7CF8C6010000000010181E1300011723
:103270001F1810002060E0E02000000020E0602027
:10328000000001073EF8E0180700000000000010F1
:10329000101F1F101000000000806020202020A0C0
:1032A000E0E0200000000000C0F03E0F030000003E
:1032B00000101C1F1710101010180600000000004E
:1032C00000FC0404040404000000000000FF0000EF
:1032D0000000000000000000007F4040404040002F
:1032E000000010E0000000000000000000000000EE
:1032F000031C6080000000000000000000000003CC
:103300000C70800000000404040404FC00000000B1
:1033100000000000000000FF00000000000040402E
:103320004040407F0000000000000010080C040C2A
:103330000810000000000000000000000000000075
:10334000000000000000000000000000000000007D
:10335000000000000000000000000000000000006D
:10336000000000008080808080808080808080805D
:103370000000000404080800000000000000000035
:10338000000000000000000000000000000000003D
:10339000000000000000000000000000000000002D
:1033A000000098D844642424FCF80000000F1F1883
:1033B000101010081F1F10180020E0F0000000007F
:1033C000000000000000FFFF180804040CF8F000E3
:1033D00000001F0F18101010180F0300000000004D
:1033E000000000000000000000E0F8180404043CA5
:1033F0003800000000030F0C101010100806000029
:103400000000000000000020E0F0000000E0F81CD8
:1034100004040408FFFF000000030F181010100838
:103420001F0F080000000000000000000000000066
:103430000000E0F8484444444C7870000000030F5A
:103440000C181010100804000000000080C060205C
:1034500020E0C00000040404FFFF04040404000092
:10346000000010101F1F10101000000000000000CE
:103470000000000000000000000070F88C04048CC4
:10348000F874040C007076CF8D8D8D89C87870002B
:103490000020E0F000000000000000000000FFFF3E
:1034A00008040404FCF8000000101F1F10000010A6
:1034B0001F1F1000000000000060600000000000FE
:1034C0000000040404FCFC000000000000001010D8
:1034D000101F1F101010000000000000000000600E
:1034E0006000000000000000040404FCFC00000078
:1034F0000000C0C08080C07F3F0000000020E0F0DE
:1035000000000000000000000000FFFF80C0F41C6D
:103510000404000000101F1F1100031F1C101000E6
:103520000000202020E0F00000000000000000006B
:1035300000FFFF000000000000001010101F1F100F
:10354000101000000000000000000000000000005B
:1035500004FCFC0804FCFC0804FCFC00101F1F1009
:10356000001F1F10001F1F100000000000000000BF
:10357000000000000004FCFC08080404FCF8000043
:1035800000101F1F100000101F1F1000000000007F
:10359000000000000000000000E0F0180C04040C23
:1035A00018F0E00000030F0C101010100C0F0300B7
:1035B0000000000000000000000000000004FCFC0F
:1035C000080404040CF8F0000080FFFF889010103D
:1035D0001C0F0300000000000000000000000000BD
:1035E00000E0F81C04040408F8FC000000030F18B5
:1035F00010109088FFFF8000000000000000000015
:1036000000000000040404FCFC100804040C0C007E
:103610001010101F1F10101000000000000000000C
:10362000000000000000000000003078CCC484845A
:10363000840C1C0000001E1810101011190F060039
:103640000000000000C000000000000000040404AE
:10365000FFFF040404000000000000000F1F101012
:10366000100C00000000000000000000000000003E
:103670000004FCFE00000004FCFE000000000F1F20
:10368000181010081F0F08000000000000000000C4
:103690000000000000040C3CFCC40000C43C0C040E
:1036A00000000000010F1E0E0100000000000000DD
:1036B0000000000000000000043CFCC400E47CFCAE
:1036C00084807C040000071F070000071F0700001C
:1036D0000000000000000000000000000004041CC6
:1036E0007CE4C0341C0404000010101C1601131FDD
:1036F0001C18100000000000000000000000000086
:1037000000040C3CFCC400C43C0404000000C08065
:10371000C1370E01000000000000000000000000A2
:103720000000000000001C0404C4F47C1C04000021
:103730000000101C1F17111010180E0000000000D0
:10374000000000F80C04000000000000001028EF4A
:1037500000000000000000000000003F604000008A
:10376000000000000000FF0000000000000000005A
:103770000000FF0000000000000000000000FF004B
:10378000000000000000040CF80000000000000031
:1037900000000000EF281000000000000000406062
:1037A0003F0000000000000000180602020408109C
:1037B0002020300800000000000000000000000091
:1037C00000000000000000000000000000000000F9
:1037D000000000207828007068040000000000004D
:1037E00000000000000000000000000000000000D9
:1037F000F0202012141010D0400000000040201CC7
:10380000232126242138262120200000008080400A
:10381000CC080020A0642CE0201010000000003E26
:10382000192820534A26131C36600000000040204F
:103830001008F650C8A8A8080000000000001804EE
:10384000081023252440203024040000000000003C
:103850008040300C8040300000000000000000215B
:10386000301814121110141C380000000000808061
:10387000507848D446502860600000000000412085
:10388000104E4F35152D61404040000000000000F3
:103890000000000000000000000000000000000028
:1038A00000000000000000000000000000001010F8
:1038B000C84848C80808F8080808080000000000C0
:1038C0000302010100203F00000000000000C0E0F2
:1038D0001C200020F8A0E29C908000000001003F26
:1038E0000000013F2A2A2A7E02000000000000009A
:1038F0002020FE2010F0308488000000000000022C
:1039000001017F01010011180F01000000000000FB
:10391000788808F828A8887C08000000002020206B
:103920002025253F25242420101020000000000021
:10393000C038000000FC08000000000000100C036C
:103940000023160C0301020C18101000000040C0E8
:103950000808807808087C404040000000001018EB
:10396000040020221509172160404000008080409B
:10397000C40C001090908878100000000000001027
:103980001F0804061920202020203C000040404051
:1039900050D0BCA822FC2084840000000000001746
:1039A000157E0A2A1809061B205060000000402CD2
:1039B0001C402C1C00000000000000000000000063
:1039C000000000000000000000000000000000C037
:1039D00080808080808080FC84808080808080C027
:1039E000C0000000000000FF7F404040404040FF1A
:1039F00040404040404040FF7F0000000000000089
:103A0000000000000000007F7000000000000000C7
:103A100000000000000000000000000000000000A6
:103A2000000000FCF80000000000000000000000A2
:103A30000000000000000000FFFE0202020202027D
:103A4000020202FFFF020202020202020202FF035E
:103A500000000000000000001F1F04040404040410
:103A6000040404FFFF0404040404040404041F0009
:103A70000000000000000000000000000000000046
:103A80000000007F3F000000000000000000000078
:103A90000000000000000000000000000000000026
:103AA0000000000000000000000000000000000016
:103AB00000F8F8F0F07020000000000000000000A6
:103AC00000000000000000000000000000000000F6
:103AD0000000000000000000000000008000000066
:103AE00000000000000000000000000000000000D6
:103AF00000FFFFFFFF0000000000000000000000CA
:103B000000000000000000008080000000000000B5
:103B100000000000000000000000000000FFFFFEA9
:103B20000606060606060606060606060606060635
:103B300006FFFFFFFF060606060606060606060641
:103B400006060606060606FFFFFFFF070200000046
:103B500000000000000000000000000000FFFFFF68
:103B60000000000000000000000000000000000055
:103B700000FFFFFFFF000000000000000000000049
:103B800000000000000000FFFFFFFF000000000039
:103B900000000000000000000000000000FFFFFF28
:103BA0001818181818181818181818181818181895
:103BB00018FFFFFFFF1818181818181818181818E9
:103BC00018181818181818FFFFFFFF000000000051
:103BD00000000000000000000000000002010100E1
:103BE00000000000000000000000000000000000D5
:103BF00000FFFFFFFF0000000000000000000000C9
:103C000000000000000000010100000000000000B2
:103C100000000000000000000000000000000000A4
:103C20000000000000000000000000000000000094
:103C300000FFFFFFFF000000000000000000000088
:103C40000000000000000000000000000000000074
:103C50000000000000000000000000000000000064
:103C60000000000000000000000000000000000054
:103C7000001F1F0F0F0000000000000000000000E8
:103C80000000000000000000000000000000000034
:103C9000000000000000010002000100030001001C
:103CA0000200010004000100020001000300010005
:103CB00002000100050001000200010003000100F4
:103CC00002000100040001000200010003000100E5
:103CD00002000100060001000200010003000100D3
:103CE00002000100040001000200010003000100C5
:103CF00002000100050001000200010003000100B4
:103D000002000100040001000200010003000100A4
:103D10000200010007000100020001000300010091
:103D20000200010004000100020001000300010084
:103D30000200010005000100020001000300010073
:103D40000200010004000100020001000300010064
:103D50000200010006000100020001000300010052
:103D60000200010004000100020001000300010044
:103D70000200010005000100020001000300010033
:103D80000200010004000100020001000300010024
:103D900002000100B43D000800000020AC02000059
:103DA00040020008543E0008AC0200203C280000FD
:103DB0002C1C0008012F9808F6023A340C18100148
:103DC0000008641808343A0276803DC038060108BD
:103DD000CAC01731CD01030418160151180A108802
:103DE0009FF8C8405050806D514520E0A020390E0A
:103DF00000095C8084A4653F240404181218080597
:103E00000202050C08101030202020222301011A84
:103E1000210A1F2010180804020D0333020239C4BE
:103E2000217BA24ABC100901020304060708093CD1
:103E30000C01401E141001405A4008291119181194
:103E400032801A08085A010829101918420819085E
:043E50000253100009
:0400000508000145A9
:00000001FF
